{
  "_format": "hh-sol-artifact-1",
  "contractName": "Toxel",
  "sourceName": "contracts/Toxel.sol",
  "abi": [
    {
      "inputs": [
        {
          "internalType": "uint256",
          "name": "_initPrice",
          "type": "uint256"
        },
        {
          "internalType": "uint256",
          "name": "_priceMultiplicator",
          "type": "uint256"
        },
        {
          "internalType": "address payable",
          "name": "_fundAddress",
          "type": "address"
        }
      ],
      "stateMutability": "nonpayable",
      "type": "constructor"
    },
    {
      "inputs": [
        {
          "internalType": "address",
          "name": "owner",
          "type": "address"
        }
      ],
      "name": "OwnableInvalidOwner",
      "type": "error"
    },
    {
      "inputs": [
        {
          "internalType": "address",
          "name": "account",
          "type": "address"
        }
      ],
      "name": "OwnableUnauthorizedAccount",
      "type": "error"
    },
    {
      "inputs": [],
      "name": "ReentrancyGuardReentrantCall",
      "type": "error"
    },
    {
      "anonymous": false,
      "inputs": [
        {
          "indexed": true,
          "internalType": "address",
          "name": "previousOwner",
          "type": "address"
        },
        {
          "indexed": true,
          "internalType": "address",
          "name": "newOwner",
          "type": "address"
        }
      ],
      "name": "OwnershipTransferred",
      "type": "event"
    },
    {
      "anonymous": false,
      "inputs": [
        {
          "indexed": true,
          "internalType": "address",
          "name": "owner",
          "type": "address"
        },
        {
          "indexed": false,
          "internalType": "uint256",
          "name": "x",
          "type": "uint256"
        },
        {
          "indexed": false,
          "internalType": "uint256",
          "name": "y",
          "type": "uint256"
        },
        {
          "indexed": false,
          "internalType": "uint256",
          "name": "amount",
          "type": "uint256"
        }
      ],
      "name": "PixelBought",
      "type": "event"
    },
    {
      "anonymous": false,
      "inputs": [
        {
          "indexed": true,
          "internalType": "address",
          "name": "newOwner",
          "type": "address"
        },
        {
          "indexed": false,
          "internalType": "uint256",
          "name": "x",
          "type": "uint256"
        },
        {
          "indexed": false,
          "internalType": "uint256",
          "name": "y",
          "type": "uint256"
        },
        {
          "indexed": false,
          "internalType": "bytes3",
          "name": "color",
          "type": "bytes3"
        }
      ],
      "name": "PixelChanged",
      "type": "event"
    },
    {
      "anonymous": false,
      "inputs": [
        {
          "indexed": true,
          "internalType": "address",
          "name": "owner",
          "type": "address"
        },
        {
          "indexed": false,
          "internalType": "uint256",
          "name": "x",
          "type": "uint256"
        },
        {
          "indexed": false,
          "internalType": "uint256",
          "name": "y",
          "type": "uint256"
        },
        {
          "indexed": false,
          "internalType": "uint256",
          "name": "amount",
          "type": "uint256"
        }
      ],
      "name": "PixelDividends",
      "type": "event"
    },
    {
      "inputs": [],
      "name": "GRID_SIZE",
      "outputs": [
        {
          "internalType": "uint256",
          "name": "",
          "type": "uint256"
        }
      ],
      "stateMutability": "view",
      "type": "function"
    },
    {
      "inputs": [],
      "name": "MAX_COORDINATE",
      "outputs": [
        {
          "internalType": "uint256",
          "name": "",
          "type": "uint256"
        }
      ],
      "stateMutability": "view",
      "type": "function"
    },
    {
      "inputs": [
        {
          "internalType": "uint256",
          "name": "x",
          "type": "uint256"
        },
        {
          "internalType": "uint256",
          "name": "y",
          "type": "uint256"
        },
        {
          "internalType": "bytes3",
          "name": "color",
          "type": "bytes3"
        }
      ],
      "name": "claimPixel",
      "outputs": [],
      "stateMutability": "payable",
      "type": "function"
    },
    {
      "inputs": [],
      "name": "fundAddress",
      "outputs": [
        {
          "internalType": "address payable",
          "name": "",
          "type": "address"
        }
      ],
      "stateMutability": "view",
      "type": "function"
    },
    {
      "inputs": [
        {
          "internalType": "uint256",
          "name": "x",
          "type": "uint256"
        },
        {
          "internalType": "uint256",
          "name": "y",
          "type": "uint256"
        }
      ],
      "name": "getPixelColor",
      "outputs": [
        {
          "internalType": "bytes3",
          "name": "",
          "type": "bytes3"
        }
      ],
      "stateMutability": "view",
      "type": "function"
    },
    {
      "inputs": [
        {
          "internalType": "uint256",
          "name": "x",
          "type": "uint256"
        },
        {
          "internalType": "uint256",
          "name": "y",
          "type": "uint256"
        }
      ],
      "name": "getPixelOwner",
      "outputs": [
        {
          "internalType": "address",
          "name": "",
          "type": "address"
        }
      ],
      "stateMutability": "view",
      "type": "function"
    },
    {
      "inputs": [
        {
          "internalType": "uint256",
          "name": "x",
          "type": "uint256"
        },
        {
          "internalType": "uint256",
          "name": "y",
          "type": "uint256"
        }
      ],
      "name": "getPixelPrice",
      "outputs": [
        {
          "internalType": "uint256",
          "name": "",
          "type": "uint256"
        }
      ],
      "stateMutability": "view",
      "type": "function"
    },
    {
      "inputs": [],
      "name": "initialPrice",
      "outputs": [
        {
          "internalType": "uint256",
          "name": "",
          "type": "uint256"
        }
      ],
      "stateMutability": "view",
      "type": "function"
    },
    {
      "inputs": [],
      "name": "owner",
      "outputs": [
        {
          "internalType": "address",
          "name": "",
          "type": "address"
        }
      ],
      "stateMutability": "view",
      "type": "function"
    },
    {
      "inputs": [],
      "name": "priceMultiplicator",
      "outputs": [
        {
          "internalType": "uint256",
          "name": "",
          "type": "uint256"
        }
      ],
      "stateMutability": "view",
      "type": "function"
    },
    {
      "inputs": [],
      "name": "renounceOwnership",
      "outputs": [],
      "stateMutability": "nonpayable",
      "type": "function"
    },
    {
      "inputs": [
        {
          "internalType": "address payable",
          "name": "_fundAddress",
          "type": "address"
        }
      ],
      "name": "setFundAddress",
      "outputs": [],
      "stateMutability": "nonpayable",
      "type": "function"
    },
    {
      "inputs": [
        {
          "internalType": "uint256",
          "name": "_initialPrice",
          "type": "uint256"
        }
      ],
      "name": "setInitialPrice",
      "outputs": [],
      "stateMutability": "nonpayable",
      "type": "function"
    },
    {
      "inputs": [
        {
          "internalType": "uint256",
          "name": "_priceMultiplicator",
          "type": "uint256"
        }
      ],
      "name": "setPriceMultiplicator",
      "outputs": [],
      "stateMutability": "nonpayable",
      "type": "function"
    },
    {
      "inputs": [
        {
          "internalType": "address",
          "name": "newOwner",
          "type": "address"
        }
      ],
      "name": "transferOwnership",
      "outputs": [],
      "stateMutability": "nonpayable",
      "type": "function"
    }
  ],
  "bytecode": "0x608060405234801561001057600080fd5b506040516116f43803806116f483398181016040528101906100329190610270565b33600073ffffffffffffffffffffffffffffffffffffffff168173ffffffffffffffffffffffffffffffffffffffff16036100a55760006040517f1e4fbdf700000000000000000000000000000000000000000000000000000000815260040161009c91906102e4565b60405180910390fd5b6100b48161011360201b60201c565b5060018081905550826002819055508160038190555080600460006101000a81548173ffffffffffffffffffffffffffffffffffffffff021916908373ffffffffffffffffffffffffffffffffffffffff1602179055505050506102ff565b60008060009054906101000a900473ffffffffffffffffffffffffffffffffffffffff169050816000806101000a81548173ffffffffffffffffffffffffffffffffffffffff021916908373ffffffffffffffffffffffffffffffffffffffff1602179055508173ffffffffffffffffffffffffffffffffffffffff168173ffffffffffffffffffffffffffffffffffffffff167f8be0079c531659141344cd1fd0a4f28419497f9722a3daafe3b4186f6b6457e060405160405180910390a35050565b600080fd5b6000819050919050565b6101ef816101dc565b81146101fa57600080fd5b50565b60008151905061020c816101e6565b92915050565b600073ffffffffffffffffffffffffffffffffffffffff82169050919050565b600061023d82610212565b9050919050565b61024d81610232565b811461025857600080fd5b50565b60008151905061026a81610244565b92915050565b600080600060608486031215610289576102886101d7565b5b6000610297868287016101fd565b93505060206102a8868287016101fd565b92505060406102b98682870161025b565b9150509250925092565b60006102ce82610212565b9050919050565b6102de816102c3565b82525050565b60006020820190506102f960008301846102d5565b92915050565b6113e68061030e6000396000f3fe6080604052600436106100e85760003560e01c806388e3eace1161008a578063cd1b9b7611610059578063cd1b9b76146102d5578063d2574183146102fe578063e82bef2914610329578063f2fde38b14610354576100e8565b806388e3eace146102285780638da5cb5b1461024457806391f068961461026f5780639f4ba0ee146102ac576100e8565b80636ef142a1116100c65780636ef142a114610180578063715018a6146101bd5780637fc4eda8146101d457806385dc3004146101ff576100e8565b80631bb166ec146100ed5780631d0806ae1461012a5780634786112c14610155575b600080fd5b3480156100f957600080fd5b50610114600480360381019061010f9190610d94565b61037d565b6040516101219190610e0f565b60405180910390f35b34801561013657600080fd5b5061013f6103b9565b60405161014c9190610e39565b60405180910390f35b34801561016157600080fd5b5061016a6103bf565b6040516101779190610e39565b60405180910390f35b34801561018c57600080fd5b506101a760048036038101906101a29190610d94565b6103c5565b6040516101b49190610e39565b60405180910390f35b3480156101c957600080fd5b506101d261043b565b005b3480156101e057600080fd5b506101e961044f565b6040516101f69190610e39565b60405180910390f35b34801561020b57600080fd5b5061022660048036038101906102219190610eb2565b610454565b005b610242600480360381019061023d9190610f0b565b6104a0565b005b34801561025057600080fd5b50610259610a5e565b6040516102669190610f7f565b60405180910390f35b34801561027b57600080fd5b5061029660048036038101906102919190610d94565b610a87565b6040516102a39190610f7f565b60405180910390f35b3480156102b857600080fd5b506102d360048036038101906102ce9190610f9a565b610ad6565b005b3480156102e157600080fd5b506102fc60048036038101906102f79190610f9a565b610ae8565b005b34801561030a57600080fd5b50610313610afa565b6040516103209190610e39565b60405180910390f35b34801561033557600080fd5b5061033e610b0b565b60405161034b9190610fd6565b60405180910390f35b34801561036057600080fd5b5061037b6004803603810190610376919061101d565b610b31565b005b600060076000848152602001908152602001600020600083815260200190815260200160002060009054906101000a900460e81b905092915050565b60025481565b60035481565b60008073ffffffffffffffffffffffffffffffffffffffff166103e88484610a87565b73ffffffffffffffffffffffffffffffffffffffff160361040d576002549050610435565b6006600084815260200190815260200160002060008381526020019081526020016000205490505b92915050565b610443610bb7565b61044d6000610c3e565b565b606481565b61045c610bb7565b80600460006101000a81548173ffffffffffffffffffffffffffffffffffffffff021916908373ffffffffffffffffffffffffffffffffffffffff16021790555050565b6104a8610d02565b600160646104b69190611079565b83106104f7576040517f08c379a00000000000000000000000000000000000000000000000000000000081526004016104ee9061110a565b60405180910390fd5b600160646105059190611079565b8210610546576040517f08c379a000000000000000000000000000000000000000000000000000000000815260040161053d90611176565b60405180910390fd5b60006105528484610a87565b90508073ffffffffffffffffffffffffffffffffffffffff163373ffffffffffffffffffffffffffffffffffffffff16036106b157600034146105ca576040517f08c379a00000000000000000000000000000000000000000000000000000000081526004016105c190611208565b60405180910390fd5b6105d4848461037d565b7cffffffffffffffffffffffffffffffffffffffffffffffffffffffffff1916827cffffffffffffffffffffffffffffffffffffffffffffffffffffffffff1916146106ac578160076000868152602001908152602001600020600085815260200190815260200160002060006101000a81548162ffffff021916908360e81c02179055503373ffffffffffffffffffffffffffffffffffffffff167f1e33fcd332920a6b76574ac1d9649598dbd97ac979a3e097ddd72a78d6d4b8e88585856040516106a393929190611228565b60405180910390a25b610a50565b60006106bd85856103c5565b9050803414610701576040517f08c379a00000000000000000000000000000000000000000000000000000000081526004016106f8906112d1565b60405180910390fd5b600073ffffffffffffffffffffffffffffffffffffffff168273ffffffffffffffffffffffffffffffffffffffff16146107f5578173ffffffffffffffffffffffffffffffffffffffff168160405161075990611322565b60006040518083038185875af1925050503d8060008114610796576040519150601f19603f3d011682016040523d82523d6000602084013e61079b565b606091505b5050508173ffffffffffffffffffffffffffffffffffffffff167fd11b6c00b6b73501d8426e39d54ace73485d376cebb66f0d8bca15d26be2c9e38686846040516107e893929190611337565b60405180910390a2610881565b600460009054906101000a900473ffffffffffffffffffffffffffffffffffffffff1673ffffffffffffffffffffffffffffffffffffffff168160405161083b90611322565b60006040518083038185875af1925050503d8060008114610878576040519150601f19603f3d011682016040523d82523d6000602084013e61087d565b606091505b5050505b6003548161088f919061136e565b600660008781526020019081526020016000206000868152602001908152602001600020819055503360056000878152602001908152602001600020600086815260200190815260200160002060006101000a81548173ffffffffffffffffffffffffffffffffffffffff021916908373ffffffffffffffffffffffffffffffffffffffff160217905550827cffffffffffffffffffffffffffffffffffffffffffffffffffffffffff1916610945868661037d565b7cffffffffffffffffffffffffffffffffffffffffffffffffffffffffff1916146109fc578260076000878152602001908152602001600020600086815260200190815260200160002060006101000a81548162ffffff021916908360e81c02179055503373ffffffffffffffffffffffffffffffffffffffff167f1e33fcd332920a6b76574ac1d9649598dbd97ac979a3e097ddd72a78d6d4b8e88686866040516109f393929190611228565b60405180910390a25b3373ffffffffffffffffffffffffffffffffffffffff167ff5ea3ad0d7794e961d9bfce4398fc7c23171743b0f4625d5ba5c5b8a3268cd3c868684604051610a4693929190611337565b60405180910390a2505b50610a59610d48565b505050565b60008060009054906101000a900473ffffffffffffffffffffffffffffffffffffffff16905090565b600060056000848152602001908152602001600020600083815260200190815260200160002060009054906101000a900473ffffffffffffffffffffffffffffffffffffffff16905092915050565b610ade610bb7565b8060028190555050565b610af0610bb7565b8060038190555050565b60016064610b089190611079565b81565b600460009054906101000a900473ffffffffffffffffffffffffffffffffffffffff1681565b610b39610bb7565b600073ffffffffffffffffffffffffffffffffffffffff168173ffffffffffffffffffffffffffffffffffffffff1603610bab5760006040517f1e4fbdf7000000000000000000000000000000000000000000000000000000008152600401610ba29190610f7f565b60405180910390fd5b610bb481610c3e565b50565b610bbf610d51565b73ffffffffffffffffffffffffffffffffffffffff16610bdd610a5e565b73ffffffffffffffffffffffffffffffffffffffff1614610c3c57610c00610d51565b6040517f118cdaa7000000000000000000000000000000000000000000000000000000008152600401610c339190610f7f565b60405180910390fd5b565b60008060009054906101000a900473ffffffffffffffffffffffffffffffffffffffff169050816000806101000a81548173ffffffffffffffffffffffffffffffffffffffff021916908373ffffffffffffffffffffffffffffffffffffffff1602179055508173ffffffffffffffffffffffffffffffffffffffff168173ffffffffffffffffffffffffffffffffffffffff167f8be0079c531659141344cd1fd0a4f28419497f9722a3daafe3b4186f6b6457e060405160405180910390a35050565b600260015403610d3e576040517f3ee5aeb500000000000000000000000000000000000000000000000000000000815260040160405180910390fd5b6002600181905550565b60018081905550565b600033905090565b600080fd5b6000819050919050565b610d7181610d5e565b8114610d7c57600080fd5b50565b600081359050610d8e81610d68565b92915050565b60008060408385031215610dab57610daa610d59565b5b6000610db985828601610d7f565b9250506020610dca85828601610d7f565b9150509250929050565b60007fffffff000000000000000000000000000000000000000000000000000000000082169050919050565b610e0981610dd4565b82525050565b6000602082019050610e246000830184610e00565b92915050565b610e3381610d5e565b82525050565b6000602082019050610e4e6000830184610e2a565b92915050565b600073ffffffffffffffffffffffffffffffffffffffff82169050919050565b6000610e7f82610e54565b9050919050565b610e8f81610e74565b8114610e9a57600080fd5b50565b600081359050610eac81610e86565b92915050565b600060208284031215610ec857610ec7610d59565b5b6000610ed684828501610e9d565b91505092915050565b610ee881610dd4565b8114610ef357600080fd5b50565b600081359050610f0581610edf565b92915050565b600080600060608486031215610f2457610f23610d59565b5b6000610f3286828701610d7f565b9350506020610f4386828701610d7f565b9250506040610f5486828701610ef6565b9150509250925092565b6000610f6982610e54565b9050919050565b610f7981610f5e565b82525050565b6000602082019050610f946000830184610f70565b92915050565b600060208284031215610fb057610faf610d59565b5b6000610fbe84828501610d7f565b91505092915050565b610fd081610e74565b82525050565b6000602082019050610feb6000830184610fc7565b92915050565b610ffa81610f5e565b811461100557600080fd5b50565b60008135905061101781610ff1565b92915050565b60006020828403121561103357611032610d59565b5b600061104184828501611008565b91505092915050565b7f4e487b7100000000000000000000000000000000000000000000000000000000600052601160045260246000fd5b600061108482610d5e565b915061108f83610d5e565b92508282039050818111156110a7576110a661104a565b5b92915050565b600082825260208201905092915050565b7f7820636f6f7264696e617465206973206f7574206f6620677269640000000000600082015250565b60006110f4601b836110ad565b91506110ff826110be565b602082019050919050565b60006020820190508181036000830152611123816110e7565b9050919050565b7f7920636f6f7264696e617465206973206f7574206f6620677269640000000000600082015250565b6000611160601b836110ad565b915061116b8261112a565b602082019050919050565b6000602082019050818103600083015261118f81611153565b9050919050565b7f557365722073686f756c64206e6f742070617920666f72206368616e67696e6760008201527f206f776e20706978656c00000000000000000000000000000000000000000000602082015250565b60006111f2602a836110ad565b91506111fd82611196565b604082019050919050565b60006020820190508181036000830152611221816111e5565b9050919050565b600060608201905061123d6000830186610e2a565b61124a6020830185610e2a565b6112576040830184610e00565b949350505050565b7f6d73672e76616c75652073686f756c6420626520657861637420706978656c2060008201527f7072696365000000000000000000000000000000000000000000000000000000602082015250565b60006112bb6025836110ad565b91506112c68261125f565b604082019050919050565b600060208201905081810360008301526112ea816112ae565b9050919050565b600081905092915050565b50565b600061130c6000836112f1565b9150611317826112fc565b600082019050919050565b600061132d826112ff565b9150819050919050565b600060608201905061134c6000830186610e2a565b6113596020830185610e2a565b6113666040830184610e2a565b949350505050565b600061137982610d5e565b915061138483610d5e565b925082820261139281610d5e565b915082820484148315176113a9576113a861104a565b5b509291505056fea2646970667358221220e0334a6741c06f5cbf22f12839fd3722d60e0747b328bb43e7244e265a649fef64736f6c634300081c0033",
  "linkReferences": {},
  "deployedLinkReferences": {}
}